:100000000C945D000C9485000C9485000C94850084
:100010000C9485000C9485000C9485000C9485004C
:100020000C9485000C9485000C9485000C9442017E
:100030000C9485000C9485000C9485000C9485002C
:100040000C94F8000C9485000C9485000C948500A9
:100050000C9485000C9485000C9485000C9485000C
:100060000C9485000C94850000000008000201003B
:100070000003040700000000000000000000000072
:10008000250028002B0000000000240027002A0083
:10009000040404040404040402020202020203032E
:1000A0000303030301020408102040800102040836
:1000B0001020010204081020730311241FBECFEF8B
:1000C000D8E0DEBFCDBF11E0A0E0B1E0ECE4F8E0A5
:1000D00002C005900D92A030B107D9F721E0A0E051
:1000E000B1E001C01D92A533B207E1F710E0CDE504
:1000F000D0E004C02197FE010E941E04CC35D10738
:10010000C9F70E94FE010C9424040C94000090E0B6
:10011000FC01E859FF4F2491FC01EC55FF4F34914D
:10012000FC01E057FF4FE491EE23C9F0222339F0A0
:10013000233001F1A8F4213019F1223029F1F0E047
:10014000EE0FFF1FE458FF4FA591B4918FB7F894BD
:10015000EC91611126C030953E233C938FBF0895EA
:100160002730A9F02830C9F0243049F78091800069
:100170008F7D03C0809180008F7780938000DFCFD8
:1001800084B58F7784BDDBCF84B58F7DFBCF809125
:10019000B0008F778093B000D2CF8091B0008F7D78
:1001A000F9CF3E2BDACF3FB7F89480910A019091B6
:1001B0000B01A0910C01B0910D0126B5A89B05C0C3
:1001C0002F3F19F00196A11DB11D3FBFBA2FA92FD6
:1001D000982F8827BC01CD01620F711D811D911DD3
:1001E00042E0660F771F881F991F4A95D1F708953F
:1001F0001F920F920FB60F9211242F933F938F935C
:100200009F93AF93BF938091060190910701A091B6
:100210000801B09109013091050123E0230F2D372A
:1002200058F50196A11DB11D20930501809306018B
:1002300090930701A0930801B093090180910A01EE
:1002400090910B01A0910C01B0910D010196A11D9F
:10025000B11D80930A0190930B01A0930C01B09300
:100260000D01BF91AF919F918F913F912F910F9071
:100270000FBE0F901F90189526E8230F0296A11D20
:10028000B11DD2CF1F920F920FB60F9211242F9350
:100290003F934F935F936F937F938F939F93AF930E
:1002A000BF93CF93DF93EF93FF9380910401C091AD
:1002B0000301D0E087FF24C01092850010928400D3
:1002C000809104018F5F8093040180910401082EC6
:1002D000000C990B8C179D0724F4809104018C303D
:1002E000C4F18091840090918500049680349C49EB
:1002F00008F47AC08091840090918500049676C0BD
:1003000080910401082E000C990B8C179D07C4F6F0
:10031000E09104018E2FEE0F990BFC01EE0FFF1FF1
:10032000E80FF91FE25FFE4F808186FFC9CFE091A1
:1003300004018E2FEE0F990BFC01EE0FFF1FE80F4B
:10034000F91FE25FFE4F808160E08F730E9487009B
:10035000B7CF2091840030918500E09104018E2F69
:10036000EE0F990BFC01EE0FFF1FE80FF91FE25F84
:10037000FE4F81819281820F931F90938900809319
:100380008800E09104018E2FEE0F990BFC01EE0F17
:10039000FF1FE80FF91FE25FFE4F808186FF11C04B
:1003A000E09104018E2FEE0F990BFC01EE0FFF1F61
:1003B000E80FF91FE25FFE4F808161E08F730E94BA
:1003C0008700FF91EF91DF91CF91BF91AF919F9106
:1003D0008F917F916F915F914F913F912F910F90EE
:1003E0000FBE0F901F90189580E49CE990938900B0
:1003F000809388008FEF80930401E3CF789484B5D5
:10040000826084BD84B5816084BD85B5826085BD10
:1004100085B5816085BD80916E00816080936E009E
:100420001092810080918100826080938100809190
:100430008100816080938100809180008160809341
:1004400080008091B10084608093B1008091B00001
:1004500081608093B00080917A00846080937A00FC
:1004600080917A00826080937A0080917A00816026
:1004700080937A0080917A00806880937A0010924D
:10048000C100809132018C3008F068C0EDEAF0E0E4
:100490002491E9E9F0E08491882399F090E0880FB5
:1004A000991FFC01EA57FF4FA591B491FC01E45854
:1004B000FF4F859194918FB7F894EC91E22BEC93D8
:1004C0008FBF80913201282F30E0F901EE0FFF1F1E
:1004D000E20FF31FE25FFE4F9081907C9960908362
:1004E00010923301109234012CE0622F0E940B0411
:1004F000829FB001112430E020E0AB01420F531F76
:10050000FA01EE0FFF1FE40FF51FE25FFE4F90812F
:1005100096FD16C02F5F3F4F2C30310571F78111CA
:100520000FC01092800082E08093810010928500BD
:1005300010928400B19A80916F00826080936F0066
:10054000E09132018E2F90E0FC01EE0FFF1FE80FCB
:10055000F91FE25FFE4F80818064808308E810E02D
:10056000C8E5D2E084EB482E512C612C712C90E030
:10057000292E90E0392E20E420937C0080917A008F
:10058000806480937A0080917A0086FDFCCF809110
:100590007800A0917900BA2FA82F24EB30E00E94B8
:1005A00017042FEF33E040E050E00E94A803C90198
:1005B000203242E03407C4F5209133016801C21AA9
:1005C000D10827FDD394CC0CDD1CCC0CDD1C0D2CEC
:1005D000000CEE08FF0820913401AE01421B5109C6
:1005E00027FD5395440F551F440F551F052E000C32
:1005F000660B770B9A01AB012C193D094E095F0977
:10060000DC01853B910514F0A4EBB0E0B7FF02C01C
:10061000B0E0A0E00E94D203A30192010E94A803CF
:100620002C0D3D1D4E1D5F1D409132014C3080F55B
:1006300080913301B801681B710987FD7395CB0167
:10064000880F991F880F991F2817390784F0809108
:100650003401BE01681B710987FD7395CB01880FBA
:10066000991F880F991F281739070CF4C9010297A1
:10067000880F991F6FB7F89450E09A01220F331F2B
:10068000240F351FF901E25FFE4F928381836FBF14
:100690000E94D3004B015C018FE0C82ED12CE12CCD
:1006A000F12C0E94D300681979098A099B09683ED8
:1006B000734081059105A8F371E0C71AD108E108DC
:1006C000F10888EE880E83E0981EA11CB11CC114AD
:1006D000D104E104F10429F72114310409F44BCFCA
:1006E0000E94000048CF809103018C3048F591E0D2
:1006F000980F909303018093320190E0FC01EE0F7C
:10070000FF1FE80FF91FE25FFE4F88EB9BE092832B
:100710008183809103018C30B8F491E0980F90931D
:1007200003018093000190E0FC01EE0FFF1FE80F32
:10073000F91FE25FFE4F88EB9BE09283818308956F
:100740008FEF80933201E5CF8FEF80930001089502
:10075000052E97FB1EF400940E94BF0357FD07D09F
:100760000E94DA0307FC03D04EF40C94BF035095AB
:100770004095309521953F4F4F4F5F4F089590958D
:100780008095709561957F4F8F4F9F4F08950E9480
:10079000FC03A59F900DB49F900DA49F800D911D0B
:1007A00011240895B7FF0C94C7030E94C703821B4E
:1007B000930B0895A1E21A2EAA1BBB1BFD010DC0CD
:1007C000AA1FBB1FEE1FFF1FA217B307E407F50701
:1007D00020F0A21BB30BE40BF50B661F771F881FDD
:1007E000991F1A9469F760957095809590959B0173
:1007F000AC01BD01CF010895A29FB001B39FC0011C
:10080000A39F700D811D1124911DB29F700D811D3C
:100810001124911D0895991B79E004C0991F961722
:1008200008F0961B881F7A95C9F7809508950E9455
:10083000FC03B7FF0895821B930B0895EE0FFF1F73
:0C0840000590F491E02D0994F894FFCF8E
:00000001FF
