:100000000C9462000C948A000C948A000C948A0070
:100010000C948A000C948A000C948A000C948A0038
:100020000C948A000C948A000C948A000C94BC03F3
:100030000C948A000C948A000C948A000C948A0018
:100040000C9472030C948A000C9440030C941A03D1
:100050000C948A000C948A000C948A000C948A00F8
:100060000C948A000C948A000000000024002700F1
:100070002A0000000000250028002B0000000008D6
:10008000000201000003040700000000000000005F
:1000900000000000230026002900040404040404D6
:1000A0000404020202020202030303030303010227
:1000B00004081020408001020408102001020408F6
:1000C0001020BD0411241FBECFEFD8E0DEBFCDBF8E
:1000D00011E0A0E0B1E0E0EFF2E102C005900D9286
:1000E000AC32B107D9F722E0ACE2B1E001C01D9219
:1000F000A130B207E1F710E0C2E6D0E004C02197DA
:10010000FE010E947E07C136D107C9F70E9428056B
:100110000C9476090C940000E091F801EC3088F51D
:100120004091F90128E830E0241B310947FD33955F
:10013000220F331F220F331F8217930784F0409141
:10014000FA0128E532E0241B310947FD3395220FDF
:10015000331F220F331F821793070CF49C01225088
:100160003109220F331F4FB7F8948E2F90E0FC0116
:10017000EE0FFF1FE80FF91FED52FE4F3283218370
:100180004FBF0895AF92BF92CF92DF92EF92FF924E
:100190000F931F93CF93DF936C017B018B01040FAF
:1001A000151FEB015E01AE18BF08C017D10759F04B
:1001B0006991D601ED91FC910190F081E02DC6018D
:1001C0000995892B79F7C501DF91CF911F910F9187
:1001D000FF90EF90DF90CF90BF90AF900895FC011B
:1001E000538D448D252F30E0842F90E0821B930B9C
:1001F000541710F0CF96089501970895FC01918D42
:10020000828D981761F0A28DAE0FBF2FB11D5D9644
:100210008C91928D9F5F9F73928F90E008958FEFE6
:100220009FEF0895FC01918D828D981731F0828D9A
:10023000E80FF11D858D90E008958FEF9FEF0895F1
:10024000FC01918D228D892F90E0805C9F4F821B55
:1002500091098F739927089586E391E00E94200108
:1002600021E0892B09F420E0822F089580E090E0BE
:10027000892B29F00E942C0181110C940000089513
:10028000FC01A48DA80FB92FB11DA35ABF4F2C910B
:10029000848D90E001968F739927848FA689B78902
:1002A0002C93A089B1898C91837080648C93938DF9
:1002B000848D981306C00288F389E02D80818F7D9C
:1002C00080830895EF92FF920F931F93CF93DF9354
:1002D000EC0181E0888F9B8D8C8D98131AC0E88982
:1002E000F989808185FF15C09FB7F894EE89FF8951
:1002F0006083E889F98980818370806480839FBFEF
:1003000081E090E0DF91CF911F910F91FF90EF90EE
:100310000895F62E0B8D10E00F5F1F4F0F731127FE
:10032000E02E8C8D8E110CC00FB607FCFACFE88939
:10033000F989808185FFF5CFCE010E944001F1CF80
:10034000EB8DEC0FFD2FF11DE35AFF4FF0829FB7AD
:10035000F8940B8FEA89FB8980818062CFCFCF939D
:10036000DF93EC01888D8823B9F0AA89BB89E889DD
:10037000F9898C9185FD03C0808186FD0DC00FB683
:1003800007FCF7CF8C9185FFF2CF808185FFEDCF01
:10039000CE010E944001E9CFDF91CF91089590E016
:1003A000FC01E458FF4F2491FC01E255FF4F3491CA
:1003B000FC01E656FF4FE491EE23C9F0222339F009
:1003C000233001F1A8F4213019F1223029F1F0E0B5
:1003D000EE0FFF1FEE58FF4FA591B4918FB7F89421
:1003E000EC91611126C030953E233C938FBF089558
:1003F0002730A9F02830C9F0243049F780918000D7
:100400008F7D03C0809180008F7780938000DFCF45
:1004100084B58F7784BDDBCF84B58F7DFBCF809192
:10042000B0008F778093B000D2CF8091B0008F7DE5
:10043000F9CF3E2BDACFCF93DF9390E0FC01E2556A
:10044000FF4F249186569F4FFC0184918823D1F061
:1004500090E0880F991FFC01E859FF4FA591B491D6
:10046000FC01EE58FF4FC591D49161110EC09FB7AA
:10047000F8948C91E22FE0958E238C932881E223CF
:10048000E8839FBFDF91CF9108958FB7F894EC91E7
:10049000E22BEC938FBFF6CF3FB7F89480913201F7
:1004A00090913301A0913401B091350126B5A89BFC
:1004B00005C02F3F19F00196A11DB11D3FBFBA2FF6
:1004C000A92F982F8827BC01CD01620F711D811DB6
:1004D000911D42E0660F771F881F991F4A95D1F73B
:1004E00008950F931F9360E08091FB010E94CF015C
:1004F00083E090E00197F1F761E08091FB010E94B9
:10050000CF0183E290E00197F1F760E08091FB0179
:100510000E94CF018091FC0190E0FC01E255FF4F69
:100520006491FC01E656FF4FE491F0E0EE0FFF1FEF
:10053000E057FF4F8591949100E412E42FE030E002
:10054000462F0E947804611571058105910529F0F7
:100550006F5F7F4F8F4F9F4F9F702BE330E040E0E6
:1005600050E00E945007C9011F910F910895CF9349
:10057000DF93EC0188819981009711F00E94200897
:10058000198218821D821C821B821A82DF91CF91F0
:100590000895FC0180819181009711F00C9420084E
:1005A00008950F931F93CF93DF93EC018881998176
:1005B000009759F02A813B812617370730F081E0F8
:1005C000DF91CF911F910F9108958B016F5F7F4F46
:1005D0000E94A908009759F0998388831B830A8396
:1005E0002C813D81232B59F7FC011082E8CF80E05C
:1005F000E7CFEF92FF920F931F93CF93DF93EC011E
:100600007B018A01BA010E94D10281110BC0CE0187
:100610000E94B702CE01DF91CF911F910F91FF9001
:10062000EF9008951D830C83B701888199810E9402
:100630006F09F0CF1F920F920FB60F9211242F93D4
:100640003F934F935F936F937F938F939F93AF935A
:10065000BF93EF93FF9386E391E00E944001FF91E7
:10066000EF91BF91AF919F918F917F916F915F912A
:100670004F913F912F910F900FBE0F901F901895A3
:100680001F920F920FB60F9211242F938F939F9367
:10069000EF93FF93E0914601F09147018081E09153
:1006A0004C01F0914D0182FD1BC0908180914F0162
:1006B0008F5F8F7320915001821741F0E0914F01BD
:1006C000F0E0EA5CFE4F958F80934F01FF91EF9130
:1006D0009F918F912F910F900FBE0F901F901895A3
:1006E0008081F4CF1F920F920FB60F9211242F9397
:1006F0003F938F939F93AF93BF9380912E019091DF
:100700002F01A0913001B091310130912D0123E0F2
:10071000230F2D3758F50196A11DB11D20932D01F2
:1007200080932E0190932F01A0933001B09331015B
:100730008091320190913301A0913401B091350143
:100740000196A11DB11D8093320190933301A093B6
:100750003401B0933501BF91AF919F918F913F913B
:100760002F910F900FBE0F901F90189526E8230F22
:100770000296A11DB11DD2CF1F920F920FB60F92FC
:1007800011242F933F934F935F936F937F938F9396
:100790009F93AF93BF93CF93DF93EF93FF9380919A
:1007A0002C01C091F701D0E087FF24C01092850092
:1007B0001092840080912C018F5F80932C01809196
:1007C0002C01082E000C990B8C179D0724F48091A6
:1007D0002C018C30C4F180918400909185000496A6
:1007E00080349C4908F47AC08091840090918500FF
:1007F000049676C080912C01082E000C990B8C1762
:100800009D07C4F6E0912C018E2FEE0F990BFC0191
:10081000EE0FFF1FE80FF91FED52FE4F808186FF9C
:10082000C9CFE0912C018E2FEE0F990BFC01EE0F3A
:10083000FF1FE80FF91FED52FE4F808160E08F73BC
:100840000E94CF01B7CF2091840030918500E091C4
:100850002C018E2FEE0F990BFC01EE0FFF1FE80FFE
:10086000F91FED52FE4F81819281820F931F909369
:10087000890080938800E0912C018E2FEE0F990B58
:10088000FC01EE0FFF1FE80FF91FED52FE4F8081B4
:1008900086FF11C0E0912C018E2FEE0F990BFC0109
:1008A000EE0FFF1FE80FF91FED52FE4F808161E050
:1008B0008F730E94CF01FF91EF91DF91CF91BF9194
:1008C000AF919F918F917F916F915F914F913F91E8
:1008D0002F910F900FBE0F901F90189580E49CE908
:1008E00090938900809388008FEF80932C01E3CF51
:1008F000CF92DF92EF92FF920F931F93E82FF92F81
:1009000005C0015011092109310961F19081962337
:100910009417B9F305C0015011092109310911F1EA
:10092000908196239413F7CFC12CD12CE12CF12C7C
:100930000AC08FEFC81AD80AE80AF80A0C151D0574
:100940002E053F0579F080818623841791F36C2D65
:100950007D2D8E2D9F2D1F910F91FF90EF90DF9099
:10096000CF90089560E070E080E090E01F910F91DB
:10097000FF90EF90DF90CF90089510923901109280
:10098000380188EE93E0A0E0B0E080933A019093C4
:100990003B01A0933C01B0933D018AE091E090932C
:1009A00037018093360185EC90E09093430180936A
:1009B000420184EC90E0909345018093440180ECE7
:1009C00090E0909347018093460181EC90E09093F2
:1009D00049018093480182EC90E090934B01809311
:1009E0004A0186EC90E090934D0180934C01109267
:1009F0004F0110925001109251011092520161E08A
:100A000083E00E941B0260E082E00E941B0283E000
:100A10008093FB0182E08093FC018091F7018C3090
:100A200098F491E0980F9093F7018093F80190E08B
:100A3000FC01EE0FFF1FE80FF91FED52FE4F88EB90
:100A40009BE09283818308958FEF8093F80108954E
:100A5000CF93DF93CDB7DEB769970FB6F894DEBFBB
:100A60000FBECDBF789484B5826084BD84B58160AB
:100A700084BD85B5826085BD85B5816085BD809169
:100A80006E00816080936E001092810080918100E1
:100A900082608093810080918100816080938100D9
:100AA000809180008160809380008091B10084609B
:100AB0008093B1008091B00081608093B0008091FC
:100AC0007A00846080937A0080917A0082608093BB
:100AD0007A0080917A00816080937A0080917A0018
:100AE000806880937A001092C100E0914601F091F5
:100AF000470182E08083E0914201F091430110823E
:100B0000E0914401F09145018FEC808310924E01F9
:100B1000E0914A01F0914B0186E08083E091480129
:100B2000F0914901808180618083E0914801F091DA
:100B30004901808188608083E0914801F0914901FA
:100B4000808180688083E0914801F0914901808133
:100B50008F7D80838091F8018C3008F051C061E076
:100B600089E00E941B028091F801282F30E0F901F2
:100B7000EE0FFF1FE20FF31FED52FE4F9081907CAE
:100B8000996090831092F9011092FA012CE0622F83
:100B90000E947207829FB001112430E020E0AB0177
:100BA000420F531FFA01EE0FFF1FE40FF51FED5226
:100BB000FE4F908196FD16C02F5F3F4F2C303105C0
:100BC00071F781110FC01092800082E08093810044
:100BD0001092850010928400B19A80916F0082601B
:100BE00080936F00E091F8018E2F90E0FC01EE0FF2
:100BF000FF1FE80FF91FED52FE4F80818064808354
:100C00009E012F5F3F4F790148E8C42ED12C50E060
:100C1000252E50E0352E198618861B861A861D86CD
:100C20001C8643E050E068E171E0CE0108960E9426
:100C3000F9020E9471028C011D8A1C8A1F8A1E8A79
:100C4000198E188E4CE050E06CE171E0CE014496B4
:100C50000E94F9021F861E86198A188A1B8A1A8A20
:100C60006C897D896115710531F0488D598DCE01F2
:100C70000E960E94F9024AE0B701C8010E94EF06F1
:100C8000F70101900020E9F73197EE19FF09B9F05B
:100C90000A891B890E0F1F1FB801CE010E960E94F4
:100CA000D102882309F48DC02E853F858A899B89CE
:100CB000B701820F931F0E946F091B8B0A8B6884F8
:100CC00079846114710409F481C00C851D850115B6
:100CD0001105B9F08A899B89080F191FB801CE0147
:100CE0000E960E94D102882309F470C02E853F859C
:100CF0008A899B89B301820F931F0E946F091B8B06
:100D00000A8B4A895B896E857F8586E391E00E9424
:100D1000C20042E050E069E271E086E391E00E94A7
:100D2000C200CE010E960E94C902CE0144960E94D6
:100D3000C902CE0108960E94C9020E9471020B9757
:100D40000CF449C08091FA0128E532E0281B3109F2
:100D500087FD3395C901880F991F880F991F0E943D
:100D60008C000E944C024B015C0134E6432E512C56
:100D7000612C712C0E944C02681979098A099B091F
:100D8000683E734081059105A8F331E0431A51088C
:100D90006108710888EE880E83E0981EA11CB11CC2
:100DA000411451046104710429F72114310409F438
:100DB00032CF0E942C01882309F42DCF0E9400001D
:100DC0002ACFCE010E960E94B70279CFCE010E96A1
:100DD0000E94B70296CF8091F9019601B7CFBB2749
:100DE000FB015527AA27880F991FAA1FA41710F0E7
:100DF000A41B83955051B9F7A05DAA3308F0A95DF3
:100E0000A193009779F7B111B1931192CB010C9492
:100E10000907DC01FC01672F71917723E1F7329715
:100E200004C07C916D9370836291AE17BF07C8F3C5
:100E300008952F923F924F925F926F927F928F927E
:100E40009F92AF92BF92CF92DF92EF92FF920F9359
:100E50001F93CF93DF93CDB7DEB7CA1BDB0B0FB663
:100E6000F894DEBF0FBECDBF09942A883988488820
:100E70005F846E847D848C849B84AA84B984C884B6
:100E8000DF80EE80FD800C811B81AA81B981CE0FAD
:100E9000D11D0FB6F894DEBF0FBECDBFED01089592
:100EA000A1E21A2EAA1BBB1BFD010DC0AA1FBB1F6E
:100EB000EE1FFF1FA217B307E407F50720F0A21BE0
:100EC000B30BE40BF50B661F771F881F991F1A944D
:100ED00069F760957095809590959B01AC01BD0177
:100EE000CF010895991B79E004C0991F961708F067
:100EF000961B881F7A95C9F780950895EE0FFF1FFE
:100F00000590F491E02D09940F931F93CF93DF93F5
:100F10008230910510F482E090E0E091FF01F091C1
:100F2000000230E020E0B0E0A0E0309799F4211515
:100F3000310509F44AC0281B390B24303105D8F596
:100F40008A819B816115710589F1FB0193838283FD
:100F5000FE0111C040815181028113814817590758
:100F6000E0F04817590799F4109761F012960C9326
:100F7000129713961C933296CF01DF91CF911F9158
:100F80000F9108950093FF0110930002F4CF2115F3
:100F9000310551F04217530738F0A901DB019A01DE
:100FA000BD01DF01F801C1CFEF01F9CF909300023D
:100FB0008093FF01CDCFFE01E20FF31F8193919348
:100FC0002250310939832883D7CF2091FD013091F8
:100FD000FE01232B41F42091020130910301309353
:100FE000FE012093FD0120910001309101012115A6
:100FF000310541F42DB73EB74091040150910501F0
:10100000241B350BE091FD01F091FE01E217F3077F
:10101000A0F42E1B3F0B2817390778F0AC014E5F68
:101020005F4F2417350748F04E0F5F1F5093FE01A6
:101030004093FD01819391939FCFF0E0E0E09CCF3E
:10104000CF93DF930097E9F0FC013297138212826D
:10105000A091FF01B0910002ED0130E020E0109777
:10106000A1F420813181820F931F2091FD013091E5
:10107000FE012817390709F061C0F093FE01E093E3
:10108000FD01DF91CF910895EA01CE17DF07E8F562
:101090004A815B819E0141155105B1F7E901FB834E
:1010A000EA8349915991C40FD51FEC17FD0761F4EC
:1010B000808191810296840F951FE901998388832D
:1010C000828193819B838A83F0E0E0E012968D9188
:1010D0009C9113970097B9F52D913C911197CD01F3
:1010E0000296820F931F2091FD013091FE01281777
:1010F000390739F6309751F5109200021092FF012E
:10110000B093FE01A093FD01BCCFD383C283408185
:101110005181840F951FC817D90761F44E5F5F4F47
:1011200088819981480F591F518340838A819B810F
:10113000938382832115310509F0B0CFF09300022B
:10114000E093FF019ECFFD01DC01C0CF138212822C
:10115000D7CFB0E0A0E0EFEAF8E00C941B078C01D9
:10116000009751F4CB010E9484078C01C801CDB7D0
:10117000DEB7E0E10C943707FC01E60FF71F9C0196
:1011800022503109E217F30708F49DC0D901CD912F
:10119000DC911197C617D70798F0C530D10530F309
:1011A000CE0104978617970708F3C61BD70B229723
:1011B000C193D1936D937C93CF010E942008D6CF29
:1011C0005B01AC1ABD0A4C018C0E9D1EA091FF0163
:1011D000B0910002512C412CF12CE12C109731F5EB
:1011E0008091FD019091FE018815990509F05CC080
:1011F0004616570608F058C08091000190910101F1
:10120000009741F48DB79EB74091040150910501BC
:10121000841B950BE817F90708F055C0F093FE0101
:10122000E093FD01F90171836083A0CF8D919C91C2
:10123000119712966C90129713967C901397A8159D
:10124000B90559F56C0142E0C40ED11CCA14DB0487
:1012500020F1AC014A195B09DA011296159780F06A
:101260006282738251834083D9016D937C93E11430
:10127000F10471F0D7011396FC93EE93129776CF99
:1012800022968C0F9D1FF90191838083F301EFCF8C
:10129000F0930002E093FF0169CF4816590608F465
:1012A0002C017D01D3019ACFCB010E9484077C01E0
:1012B000009749F0AE01B8010E946609C8010E947A
:1012C0002008870153CF10E000E050CFFB01DC0184
:1012D00002C001900D9241505040D8F70895FB0193
:1012E000DC0101900D920020E1F70895F894FFCF02
:1012F000000001028000000000006201C200EF0057
:10130000AF012001FE00120120636D004469737477
:0C131000C3A26E6369613A20000D0A0060
:00000001FF
