:100000000C945E000C9486000C9486000C94860080
:100010000C9486000C9486000C9486000C94860048
:100020000C9486000C9486000C9486000C94860038
:100030000C9486000C9486000C9486000C94860028
:100040000C94AB050C9486000C9479050C94530524
:100050000C9486000C9486000C9486000C94860008
:100060000C9486000C948600000000080002010039
:100070000003040700000000000000000000000072
:10008000250028002B0000000000240027002A0083
:10009000040404040404040402020202020203032E
:1000A0000303030301020408102040800102040836
:1000B0001020010204081020F505080811241FBEB5
:1000C000CFEFD8E0DEBFCDBF12E0A0E0B1E0E2E3C9
:1000D000F7E102C005900D92AC32B107D9F722E0EA
:1000E000ACE2B2E001C01D92A53EB207E1F710E01C
:1000F000CDE5D0E004C02197FE010E948309CC35F4
:10010000D107C9F70E942D060C948C0B0C940000AB
:100110000895AF92BF92CF92DF92EF92FF920F932A
:100120001F93CF93DF936C017B018B01040F151F8D
:10013000EB015E01AE18BF08C017D10759F06991F5
:10014000D601ED91FC910190F081E02DC601099559
:10015000892B79F7C501DF91CF911F910F91FF9006
:10016000EF90DF90CF90BF90AF900895FC01538D3A
:10017000448D252F30E0842F90E0821B930B541781
:1001800010F0CF96089501970895FC01918D828D0E
:10019000981761F0A28DAE0FBF2FB11D5D968C91A7
:1001A000928D9F5F9F73928F90E008958FEF9FEFE6
:1001B00008952FB7F8948091340290913502A09160
:1001C0003602B09137022FBF8093400290934102D4
:1001D000A0934202B093430288E392E00E94C500DC
:1001E00097FF26C02FB7F894809134029091350282
:1001F000A0913602B09137022FBF4091400250913A
:1002000041026091420270914302841B950BA60B40
:10021000B70B40913C0250913D0260913E027091BB
:100220003F0284179507A607B707B0F28FEF9FEF3D
:100230000895FC01918D828D981731F0828DE80F21
:10024000F11D858D90E008958FEF9FEF0895FC01DB
:10025000918D228D892F90E0805C9F4F821B9109A8
:100260008F739927089588E392E00E94270121E087
:10027000892B09F420E0822F089580E090E0892BFB
:1002800029F00E94330181110C9400000895FC01B3
:10029000A48DA80FB92FB11DA35ABF4F2C91848DE7
:1002A00090E001968F739927848FA689B7892C9344
:1002B000A089B1898C91837080648C93938D848D97
:1002C000981306C00288F389E02D80818F7D80839A
:1002D0000895EF92FF920F931F93CF93DF93EC015A
:1002E00081E0888F9B8D8C8D98131AC0E889F989DD
:1002F000808185FF15C09FB7F894EE89FF896083E0
:10030000E889F98980818370806480839FBF81E060
:1003100090E0DF91CF911F910F91FF90EF900895A2
:10032000F62E0B8D10E00F5F1F4F0F731127E02E7D
:100330008C8D8E110CC00FB607FCFACFE889F989B5
:10034000808185FFF5CFCE010E944701F1CFEB8D73
:10035000EC0FFD2FF11DE35AFF4FF0829FB7F89489
:100360000B8FEA89FB8980818062CFCFCF93DF93A7
:10037000EC01888D8823B9F0AA89BB89E889F989BD
:100380008C9185FD03C0808186FD0DC00FB607FCF2
:10039000F7CF8C9185FFF2CF808185FFEDCFCE0125
:1003A0000E944701E9CFDF91CF91089590E0FC01D1
:1003B000E859FF4F2491FC01EC55FF4F3491FC01AB
:1003C000E057FF4FE491EE23C9F0222339F02330A8
:1003D00001F1A8F4213019F1223029F1F0E0EE0FFB
:1003E000FF1FE458FF4FA591B4918FB7F894EC919B
:1003F000611126C030953E233C938FBF089527306E
:10040000A9F02830C9F0243049F7809180008F7D11
:1004100003C0809180008F7780938000DFCF84B508
:100420008F7784BDDBCF84B58F7DFBCF8091B0000B
:100430008F778093B000D2CF8091B0008F7DF9CFBD
:100440003E2BDACF3FB7F89480912F029091300283
:10045000A0913102B091320226B5A89B05C02F3F72
:1004600019F00196A11DB11D3FBFBA2FA92F982FDA
:100470008827BC01CD01620F711D811D911D42E0D5
:10048000660F771F881F991F4A95D1F708958F929D
:100490009F92AF92BF92CF92DF92EF92FF926B0149
:1004A0007C010E9422024B015C01C114D104E104D1
:1004B000F104B9F00E942202681979098A099B099E
:1004C000683E73408105910580F321E0C21AD1088E
:1004D000E108F10888EE880E83E0981EA11CB11C8B
:1004E000E4CFFF90EF90DF90CF90BF90AF909F90C0
:1004F0008F900895BF92CF92DF92EF92FF920F9369
:100500001F93CF93DF938B01D0E0C0E06C01990F74
:10051000EE08FF0896E0B92E61E08B2D0E94D6010F
:10052000B3948BE0B812F8CFC701B6010E9447021E
:1005300086E0B82E60E08B2D0E94D601B3948BE04C
:10054000B812F8CFC701B6010E94470221960C17D6
:100550001D0701F7DF91CF911F910F91FF90EF9051
:10056000DF90CF90BF900895CF93DF93FC0101906F
:100570000020E9F73197AF01481B590BBC0188E314
:1005800092E00E948900EC0142E050E06CE171E0F1
:1005900088E392E00E9489008C0F9D1FDF91CF912C
:1005A0000895EF92FF920F931F93CF93DF930091E3
:1005B000DB021091DC02FC01C081D181F801819144
:1005C0008F018823B9F0082E000C990B0E946B0B49
:1005D0007C018991082E000C990B0E946B0BE81688
:1005E000F90661F380E0DF91CF911F910F91FF90A9
:1005F000EF90089581E0F7CF2091DF023091E00283
:100600008091D9029091DA0228173907F1F480918C
:10061000DB029091DC026091D5027091D6020097C6
:10062000D1F061157105A1F4232BC1F0FC0180818B
:1006300090E008C0232B91F0FB01808190E0919520
:100640008195910921E0892B09F020E0822F0895FE
:100650000E947C0BF7CF6115710561F721E0F6CFA1
:100660000F931F93CF93DF93EC01888199810097BB
:1006700059F02A813B812617370730F081E0DF915E
:10068000CF911F910F9108958B016F5F7F4F0E9453
:10069000AE0A009759F0998388831B830A832C81C3
:1006A0003D81232B59F7FC011082E8CF80E0E7CF92
:1006B000CF93DF93EC0188819981009711F00E941C
:1006C000250A198218821D821C821B821A82DF91E0
:1006D000CF910895EF92FF920F931F93CF93DF93E3
:1006E000EC017B018A01BA010E94300381110BC029
:1006F000CE010E945803CE01DF91CF911F910F913F
:10070000FF90EF9008951D830C83B7018881998134
:100710000E94850BF0CFFC0111821082138212829D
:1007200015821482FB0101900020E9F73197AF0197
:10073000461B570B0C946A03FC0180819181009742
:1007400011F00C94250A08950F931F93CF93DF9314
:10075000CDB7DEB728970FB6F894DEBF0FBECDBF7A
:100760008FE191E00E94B40288E392E00E942701A9
:10077000892BD1F388E392E00E942701892B09F4A9
:100780004FC01A8219821C821B821E821D8250E079
:1007900040E06EE171E0CE0101960E946A030E9482
:1007A000D90097FD1BC08F8318860D811E810F5FB6
:1007B0001F4FB801CE0101960E943003882379F3C0
:1007C00029813A818D819E81BE01695F7F4F820FB1
:1007D000931F0E94850B1E830D83E1CF8091DB0266
:1007E0009091DC02009749F169817A816115710568
:1007F00011F14091DD025091DE022D813E814217C0
:100800005307C8F00E94850B8D819E819093E00272
:100810008093DF021E821D82CE0101960E949C03FE
:1008200028960FB6F894DEBF0FBECDBFDF91CF91F3
:100830001F910F9108950E94250A89819A819093B2
:10084000DC028093DB028B819C819093DE0280939B
:10085000DD028D819E819093E0028093DF021A82F7
:1008600019821C821B82D6CF2F923F924F925F92A9
:100870006F927F928F929F92AF92BF92CF92DF92B0
:10088000EF92FF920F931F93CF93DF93CDB7DEB715
:100890002E970FB6F894DEBF0FBECDBF2C012DB63C
:1008A0003EB6660F771F8DB79EB7861B970B0FB6A8
:1008B000F8949EBF0FBE8DBFEDB7FEB731967F0196
:1008C0008F01060F171F6F0195E0892E912CA12C27
:1008D000B12C0E945C08A50194010E94E9086F5F99
:1008E0007F4F8F4F9F4FF601619371936F010E17EA
:1008F0001F0779F750E040E06EE171E085ED92E08E
:100900000E946A03052C000C66087708CE01019648
:100910005C01F701019111917F0110932D02009369
:100920002C020130110509F07BC061E086E00E94D5
:10093000D601C301B2010E94470260E086E00E9436
:10094000D601C301B2010E9447021A8619861C868D
:100950001B861E861D866091D5027091D602611598
:10096000710541F04091D9025091DA02CE01099609
:100970000E946A034AE0B501C8010E94B408F5016B
:1009800001900020E9F73197EA19FB09B9F00D85CC
:100990001E850E0F1F1FB801CE0109960E9430035D
:1009A000882309F476C029853A858D859E85B50111
:1009B000820F931F0E94850B1E870D8769857A859C
:1009C0006115710509F46AC04D855E8585ED92E07B
:1009D0000E946A03CE0109960E949C03EC14FD0458
:1009E00009F097CF0FB6F8943EBE0FBE2DBE2E96DF
:1009F0000FB6F894DEBF0FBECDBFDF91CF911F9130
:100A00000F91FF90EF90DF90CF90BF90AF909F90AD
:100A10008F907F906F905F904F903F902F900895B0
:100A20000230110559F461E087E00E94D601C3014C
:100A3000B2010E94470260E087E081CF03301105D8
:100A400059F461E088E00E94D601C301B2010E941E
:100A5000470260E088E073CF0430110559F461E08B
:100A600089E00E94D601C301B2010E94470260E002
:100A700089E065CF0530110509F067CF61E08AE0B4
:100A80000E94D601C301B2010E94470260E08AE0E1
:100A900056CFCE0109960E94580390CF85ED92E083
:100AA0000E94580397CF1F920F920FB60F921124F6
:100AB0002F933F934F935F936F937F938F939F9366
:100AC000AF93BF93EF93FF9388E392E00E944701B7
:100AD000FF91EF91BF91AF919F918F917F916F9116
:100AE0005F914F913F912F910F900FBE0F901F90EC
:100AF00018951F920F920FB60F9211242F938F9378
:100B00009F93EF93FF93E0914802F0914902808117
:100B1000E0914E02F0914F0282FD1BC090818091C6
:100B200051028F5F8F7320915202821741F0E09142
:100B30005102F0E0E85CFD4F958F80935102FF91E8
:100B4000EF919F918F912F910F900FBE0F901F905B
:100B500018958081F4CF1F920F920FB60F92112437
:100B60002F933F938F939F93AF93BF9380913402C2
:100B700090913502A0913602B091370230912E0249
:100B800023E0230F2D3758F50196A11DB11D2093A9
:100B90002E028093340290933502A0933602B093D4
:100BA000370280912F0290913002A0913102B091D2
:100BB00032020196A11DB11D80932F029093300245
:100BC000A0933102B0933202BF91AF919F918F9168
:100BD0003F912F910F900FBE0F901F90189526E810
:100BE000230F0296A11DB11DD2CFE8E3F2E01382DC
:100BF000128288EE93E0A0E0B0E084839583A68320
:100C0000B7838EE091E09183808385EC90E09587B7
:100C1000848784EC90E09787868780EC90E0918BC6
:100C2000808B81EC90E0938B828B82EC90E0958BB3
:100C3000848B86EC90E0978B868B118E128E138EB0
:100C4000148E6EE171E08BED92E00E948B036EE1F9
:100C500071E085ED92E00C948B03CF93DF9300D08D
:100C600000D000D0CDB7DEB7789484B5826084BD63
:100C700084B5816084BD85B5826085BD85B58160A0
:100C800085BD80916E00816080936E00109281001E
:100C900080918100826080938100809181008160D9
:100CA000809381008091800081608093800080919A
:100CB000B10084608093B1008091B0008160809326
:100CC000B00080917A00846080937A0080917A00ED
:100CD000826080937A0080917A00816080937A00AC
:100CE00080917A00806880937A001092C100E09130
:100CF0004802F091490282E08083E0914402F09141
:100D000045021082E0914602F09147028FEC808309
:100D100010925002E0914C02F0914D0286E08083E7
:100D2000E0914A02F0914B02808180618083E091E2
:100D30004A02F0914B02808188608083E0914A02F0
:100D4000F0914B02808180688083E0914A02F091AB
:100D50004B0280818F7D808326E030E0F901EC55E5
:100D6000FF4F4491F901E057FF4F8491882399F098
:100D700090E0880F991FFC01EA57FF4FA591B491AD
:100D8000FC01E458FF4F859194918FB7F894EC9152
:100D9000E42BEC938FBF2F5F3F4F2B303105F1F6E3
:100DA00080E480937C0080917A00806480937A0054
:100DB00080917A0086FDFCCF809178006091790067
:100DC000762F682F072E000C880B990B6115710583
:100DD0008105910511F00E94AB0840E0C42E40E06F
:100DE000D42E55E0E52E63E6B62E76E0A72E11E070
:100DF00082E6982E92E0892E23E0F22E34E0732EC4
:100E000080913302843009F4AEC04CF5813009F48E
:100E10007DC064F48823D1F1C114D10489F30E9408
:100E20003301882329F30E940000E2CF823009F4C5
:100E300087C0833089F786EB91E00E94B40269E0B5
:100E400070E088E592E00E9434040E94A4030E94AE
:100E5000FC02882309F46FC07092330269C08630A7
:100E600009F4A7C00CF492C0823609F4A5C08336F9
:100E700099F686EE91E00E94B40265E070E084E6A7
:100E800090E00E947A0290923302C6CF87E391E00D
:100E90000E94B40282E491E00E94B4020E94A40382
:100EA00061E571E0CE0101960E948B038091DF0223
:100EB0009091E0022D813E8100E08217930741F47A
:100EC00001E0892B29F0CE0101960E94D102082F62
:100ED000CE0101960E949C03002369F01093330217
:100EE00083E591E00E94B40263E070E088EE93E055
:100EF0000E947A0291CFF092330286E691E00E943E
:100F0000B40265E070E08CE291E0F2CF89E791E015
:100F10000E94B40263E070E088EE93E00E94340423
:100F20000E94A4030E94FC02882329F080923302CD
:100F300085E891E0D7CFB09233028EE991E0DFCF20
:100F40008AEA91E00E94B40265E070E08CEB92E0E6
:100F50000E9434040E94A4030E94FC02882359F3D7
:100F6000F0923302E5CF82EC91E00E94B40269E096
:100F700070E088E592E00E9434040E94A4030E947D
:100F8000FC028823C1F2E0923302D2CF8EEC91E0D2
:100F90000E94B40269E070E088E592E00E943404A7
:100FA0000E94A4030E94FC02882329F2A09233022B
:100FB000BFCF8AED91E0ECCF80EF91E00E94B402C8
:100FC0000E94A40361E571E0CE0101960E948B03AB
:100FD0008091DF029091E0022D813E8100E0821736
:100FE000930741F401E0892B29F0CE0101960E947C
:100FF000D102082FCE0101960E949C031093330268
:1010000089E192E0002309F47ACF87E092E06ACF89
:1010100085ED92E00E949C038BED92E00C949C0382
:101020008F929F92AF92BF92CF92DF92EF92FF92F8
:10103000CF93DF93EC01688179818A819B8161156F
:1010400071058105910521F464E279ED8BE597E066
:101050002DE133EF41E050E00E94E90849015A01D7
:101060009B01AC01A7EAB1E40E9408096B017C0175
:10107000ACEEB4EFA50194010E941609C60ED71E6E
:10108000E81EF91EF7FE06C081E0C81AD108E10883
:1010900080E8F80AC882D982EA82FB82C701B601D9
:1010A0009F77DF91CF91FF90EF90DF90CF90BF902F
:1010B000AF909F908F9008958F929F92AF92BF9222
:1010C000CF92DF92EF92FF92609100017091010147
:1010D00080910201909103016115710581059105CF
:1010E00021F464E279ED8BE597E02DE133EF41E007
:1010F00050E00E94E90849015A019B01AC01A7EAAE
:10110000B1E40E9408096B017C01ACEEB4EFA501CB
:1011100094010E941609C60ED71EE81EF91EF7FE9E
:1011200006C081E0C81AD108E10880E8F80AC09238
:101130000001D0920101E0920201F0920301C70187
:10114000B6019F77FF90EF90DF90CF90BF90AF9068
:101150009F908F9008956093000170930101809398
:101160000201909303010895BB274A3031F499237B
:1011700022F4BDE2909581959F4F0C94C008BB2747
:10118000FB015527AA27880F991FAA1FA41710F043
:10119000A41B83955051B9F7A05DAA3308F0A95D4F
:1011A000A193009779F7B111B1931192CB010C94EF
:1011B000D908DC01FC01672F71917723E1F73297A1
:1011C00004C07C916D9370836291AE17BF07C8F322
:1011D0000895052E97FB1EF400940E94000957FD08
:1011E00007D00E94520907FC03D04EF40C9400096A
:1011F00050954095309521953F4F4F4F5F4F089543
:1012000090958095709561957F4F8F4F9F4F089572
:101210000E947409A59F900DB49F900DA49F800D0E
:10122000911D11240895B7FF0C9408090E94080924
:10123000821B930B08952F923F924F925F926F9271
:101240007F928F929F92AF92BF92CF92DF92EF9256
:10125000FF920F931F93CF93DF93CDB7DEB7CA1BD7
:10126000DB0B0FB6F894DEBF0FBECDBF09942A8802
:10127000398848885F846E847D848C849B84AA84AA
:10128000B984C884DF80EE80FD800C811B81AA8137
:10129000B981CE0FD11D0FB6F894DEBF0FBECDBF02
:1012A000ED010895A1E21A2EAA1BBB1BFD010DC082
:1012B000AA1FBB1FEE1FFF1FA217B307E407F50706
:1012C00020F0A21BB30BE40BF50B661F771F881FE2
:1012D000991F1A9469F760957095809590959B0178
:1012E000AC01BD01CF010895A29FB001B39FC00121
:1012F000A39F700D811D1124911DB29F700D811D42
:101300001124911D0895EE0FFF1F0590F491E02D1B
:1013100009940F931F93CF93DF938230910510F4BC
:1013200082E090E0E091E302F091E40230E020E01E
:10133000B0E0A0E0309799F42115310509F44AC0D6
:10134000281B390B24303105D8F58A819B81611522
:10135000710589F1FB0193838283FE0111C04081F5
:1013600051810281138148175907E0F04817590746
:1013700099F4109761F012960C93129713961C93A0
:101380003296CF01DF91CF911F910F910895009375
:10139000E3021093E402F4CF2115310551F0421716
:1013A000530738F0A901DB019A01BD01DF01F80103
:1013B000C1CFEF01F9CF9093E4028093E302CDCF48
:1013C000FE01E20FF31F819391932250310939837B
:1013D0002883D7CF2091E1023091E202232B41F400
:1013E00020910601309107013093E2022093E1023F
:1013F00020910401309105012115310541F42DB7EB
:101400003EB74091080150910901241B350BE09132
:10141000E102F091E202E217F307A0F42E1B3F0B6A
:101420002817390778F0AC014E5F5F4F2417350756
:1014300048F04E0F5F1F5093E2024093E102819308
:1014400091939FCFF0E0E0E09CCFCF93DF930097A4
:10145000E9F0FC01329713821282A091E302B0916D
:10146000E402ED0130E020E01097A1F42081318109
:10147000820F931F2091E1023091E2022817390771
:1014800009F061C0F093E202E093E102DF91CF91B5
:101490000895EA01CE17DF07E8F54A815B819E01D6
:1014A00041155105B1F7E901FB83EA83499159914F
:1014B000C40FD51FEC17FD0761F48081918102965E
:1014C000840F951FE90199838883828193819B838F
:1014D0008A83F0E0E0E012968D919C91139700973B
:1014E000B9F52D913C911197CD010296820F931F72
:1014F0002091E1023091E2022817390739F630973E
:1015000051F51092E4021092E302B093E202A0932C
:10151000E102BCCFD383C28340815181840F951FE8
:10152000C817D90761F44E5F5F4F88819981480FD2
:10153000591F518340838A819B8193838283211524
:10154000310509F0B0CFF093E402E093E3029ECFBF
:10155000FD01DC01C0CF13821282D7CFB0E0A0E042
:10156000E4EBFAE00C941D098C01009751F4CB01D7
:101570000E9489098C01C801CDB7DEB7E0E10C9467
:101580003909FC01E60FF71F9C0122503109E217CF
:10159000F30708F49DC0D901CD91DC911197C617CE
:1015A000D70798F0C530D10530F3CE0104978617E0
:1015B000970708F3C61BD70B2297C193D1936D935E
:1015C0007C93CF010E94250AD6CF5B01AC1ABD0ADD
:1015D0004C018C0E9D1EA091E302B091E402512CAF
:1015E000412CF12CE12C109731F58091E102909182
:1015F000E2028815990509F05CC04616570608F006
:1016000058C08091040190910501009741F48DB775
:101610009EB74091080150910901841B950BE81772
:10162000F90708F055C0F093E202E093E102F901F6
:1016300071836083A0CF8D919C91119712966C90CD
:10164000129713967C901397A815B90559F56C015C
:1016500042E0C40ED11CCA14DB0420F1AC014A19CB
:101660005B09DA011296159780F0628273825183CA
:101670004083D9016D937C93E114F10471F0D7019B
:101680001396FC93EE93129776CF22968C0F9D1FA4
:10169000F90191838083F301EFCFF093E402E093AB
:1016A000E30269CF4816590608F42C017D01D301E5
:1016B0009ACFCB010E9489097C01009749F0AE01C5
:1016C000B8010E94730BC8010E94250A870153CFFD
:1016D00010E000E050CF9111089581548A5108F430
:1016E000805E855A0895FB01DC0102C001900D92D5
:1016F00041505040D8F70895FB01DC018D910190D5
:1017000080190110D9F3990B0895FB01DC010190B8
:101710000D920020E1F7089510E0CDE5D0E004C07F
:10172000FE010E9483092196CE35D107C9F7F894AE
:02173000FFCFE9
:10173200010000000000E5028000000000006901D5
:101742008900B600B6012701C50019010D0A002A59
:1017520020496E73657261207375612072657370C2
:101762006F737461202A002A20494E4943494F2051
:101772002A00436F6D656361723F2028732F6E29C3
:101782000073004A6F676F20636F6D65C3A7616E58
:10179200646F2E2E2E004A6F676F206EC3A36F20D8
:1017A200696E69636961646F002A204E6976656CAF
:1017B2002031202A005061726162656E73212070AF
:1017C200726F78696D6F206E6976656C2E00457256
:1017D200726F6F6F6F6F212121002A204E6976652B
:1017E2006C2032202A002A204E6976656C20332034
:1017F2002A002A204E6976656C2034202A002A208D
:101802004E6976656C2035202A002A204E6976655D
:101812006C2036202A0047616D65204F7665720084
:101822006A6F676172206E6F76616D656E74653F77
:101832002028732F6E29004A6F676F20636F6D65D2
:1018420063616E646F2E2E2E004A6F676F206E6189
:0C1852006F20696E69636961646F0000BB
:00000001FF
