:100000000C9462000C948A000C948A000C948A0070
:100010000C948A000C948A000C948A000C948A0038
:100020000C948A000C948A000C948A000C948A0028
:100030000C948A000C948A000C948A000C948A0018
:100040000C94C5020C948A000C9493020C946D02DB
:100050000C948A000C948A000C948A000C948A00F8
:100060000C948A000C948A00000000080002010031
:100070000003040700000000000000000000000072
:1000800023002600290000000000250028002B0086
:1000900000000000240027002A00040404040404D3
:1000A0000404020202020202030303030303010227
:1000B00004081020408001020408102001020408F6
:1000C0001020540311241FBECFEFD8E0DEBFCDBFF8
:1000D00021E0ACE2B1E001C01D92A83DB207E1F71A
:1000E00011E0A0E0B1E0ECEDFFE002C005900D9260
:1000F000AC32B107D9F710E0C2E6D0E004C02197D6
:10010000FE010E94F405C136D107C9F70E94DC0345
:100110000C94EC070C940000AF92BF92CF92DF9248
:10012000EF92FF920F931F93CF93DF936C017B01AC
:100130008B01040F151FEB015E01AE18BF08C0173D
:10014000D10759F06991D601ED91FC910190F081B0
:10015000E02DC6010995892B79F7C501DF91CF9173
:100160001F910F91FF90EF90DF90CF90BF90AF90D5
:100170000895FC01538D448D252F30E0842F90E0AD
:10018000821B930B541710F0CF9608950197089592
:10019000FC01918D828D981761F0A28DAE0FBF2F5B
:1001A000B11D5D968C91928D9F5F9F73928F90E0B1
:1001B00008958FEF9FEF0895FC01918D828D981720
:1001C00031F0828DE80FF11D858D90E008958FEF5D
:1001D0009FEF0895FC01918D228D892F90E0805C26
:1001E0009F4F821B91098F739927089585E391E0B2
:1001F0000E94EA0021E0892B09F420E0822F089573
:1002000080E090E0892B29F00E94F60081110C9487
:1002100000000895FC01A48DA80FB92FB11DA35AA9
:10022000BF4F2C91848D90E001968F739927848F16
:10023000A689B7892C93A089B1898C918370806439
:100240008C93938D848D981306C00288F389E02DDA
:1002500080818F7D80830895EF92FF920F931F938B
:10026000CF93DF93EC0181E0888F9B8D8C8D981369
:100270001AC0E889F989808185FF15C09FB7F89475
:10028000EE89FF896083E889F989808183708064C1
:1002900080839FBF81E090E0DF91CF911F910F910C
:1002A000FF90EF900895F62E0B8D10E00F5F1F4F1B
:1002B0000F731127E02E8C8D8E110CC00FB607FC2A
:1002C000FACFE889F989808185FFF5CFCE010E94B8
:1002D0000A01F1CFEB8DEC0FFD2FF11DE35AFF4F1B
:1002E000F0829FB7F8940B8FEA89FB898081806246
:1002F000CFCFCF93DF93EC01888D8823B9F0AA8903
:10030000BB89E889F9898C9185FD03C0808186FDD0
:100310000DC00FB607FCF7CF8C9185FFF2CF80811F
:1003200085FFEDCFCE010E940A01E9CFDF91CF9189
:10033000089590E0FC01E859FF4F2491FC01E2553B
:10034000FF4F3491FC01E656FF4FE491EE23C9F0D4
:10035000222339F0233001F1A8F4213019F12230A1
:1003600029F1F0E0EE0FFF1FEA57FF4FA591B4917E
:100370008FB7F894EC91611126C030953E233C93E1
:100380008FBF08952730A9F02830C9F0243049F7ED
:10039000809180008F7D03C0809180008F77809353
:1003A0008000DFCF84B58F7784BDDBCF84B58F7DB0
:1003B000FBCF8091B0008F778093B000D2CF809137
:1003C000B0008F7DF9CF3E2BDACF3FB7F894809104
:1003D000310190913201A0913301B091340126B5E1
:1003E000A89B05C02F3F19F00196A11DB11D3FBF6D
:1003F000BA2FA92F982F8827BC01CD01620F711D3C
:10040000811D911D42E0660F771F881F991F4A9535
:10041000D1F70895CF93DF93EC01888199810097FC
:1004200011F00E949606198218821D821C821B827E
:100430001A82DF91CF910895FC018081918100970C
:1004400011F00C94960608950F931F93CF93DF93AA
:10045000EC0188819981009759F02A813B81261708
:10046000370730F081E0DF91CF911F910F91089510
:100470008B016F5F7F4F0E941F07009759F0998390
:1004800088831B830A832C813D81232B59F7FC0130
:100490001082E8CF80E0E7CFEF92FF920F931F9397
:1004A000CF93DF93EC017B018A01BA010E94240201
:1004B00081110BC0CE010E940A02CE01DF91CF91C3
:1004C0001F910F91FF90EF9008951D830C83B7014A
:1004D000888199810E94E507F0CF1F920F920FB695
:1004E0000F9211242F933F934F935F936F937F93BA
:1004F0008F939F93AF93BF93EF93FF9385E391E027
:100500000E940A01FF91EF91BF91AF919F918F914E
:100510007F916F915F914F913F912F910F900FBEFF
:100520000F901F9018951F920F920FB60F921124E3
:100530002F938F939F93EF93FF93E0914501F09159
:1005400046018081E0914B01F0914C0182FD1BC07E
:10055000908180914E018F5F8F7320914F018217A0
:1005600041F0E0914E01F0E0EB5CFE4F958F8093FF
:100570004E01FF91EF919F918F912F910F900FBEA0
:100580000F901F9018958081F4CF1F920F920FB695
:100590000F9211242F933F938F939F93AF93BF9309
:1005A00080912D0190912E01A0912F01B0913001E9
:1005B00030912C0123E0230F2D3758F50196A11D12
:1005C000B11D20932C0180932D0190932E01A093B7
:1005D0002F01B09330018091310190913201A091AF
:1005E0003301B09134010196A11DB11D80933101F9
:1005F00090933201A0933301B0933401BF91AF9136
:100600009F918F913F912F910F900FBE0F901F9050
:10061000189526E8230F0296A11DB11DD2CFCF92C7
:10062000DF92EF92FF920F931F93E82FF92F05C0EF
:10063000015011092109310961F190819623941724
:10064000B9F305C0015011092109310911F1908157
:1006500096239413F7CFC12CD12CE12CF12C0AC096
:100660008FEFC81AD80AE80AF80A0C151D052E05DE
:100670003F0579F080818623841791F36C2D7D2DC1
:100680008E2D9F2D1F910F91FF90EF90DF90CF90B7
:10069000089560E070E080E090E01F910F91FF907E
:1006A000EF90DF90CF900895CF93DF9310923801B1
:1006B0001092370188EE93E0A0E0B0E0809339011A
:1006C00090933A01A0933B01B0933C018AE091E002
:1006D000909336018093350185EC90E09093420130
:1006E0008093410184EC90E0909344018093430116
:1006F00080EC90E0909346018093450181EC90E07E
:10070000909348018093470182EC90E090934A01D6
:100710008093490186EC90E090934C0180934B01CB
:1007200010924E0110924F011092500110925101FF
:10073000E2EBF0E02491EEE9F0E08491882399F077
:1007400090E0880F991FFC01E057FF4FA591B491ED
:10075000FC01EA57FF4F859194918FB7F894EC9183
:10076000E22BEC938FBFE3EBF0E02491EFE9F0E0B4
:1007700084918823C1F090E0880F991FFC01E05715
:10078000FF4FC591D491FC01EA57FF4FA591B49159
:100790009FB7F8948881E22FE0958E2388838C910F
:1007A000E823EC939FBF84E08093D20185E080939F
:1007B000D301DF91CF910895CF93DF93CDB7DEB70B
:1007C00069970FB6F894DEBF0FBECDBF789484B59D
:1007D000826084BD84B5816084BD85B5826085BD3D
:1007E00085B5816085BD80916E00816080936E00CB
:1007F00010928100809181008260809381008091BD
:10080000810081608093810080918000816080936D
:1008100080008091B10084608093B1008091B0002D
:1008200081608093B00080917A00846080937A0028
:1008300080917A00826080937A0080917A00816052
:1008400080937A0080917A00806880937A00109279
:10085000C100E0914501F091460182E08083E09182
:100860004101F09142011082E0914301F091440175
:100870008FEC808310924D01E0914901F0914A0183
:1008800086E08083E0914701F0914801808180619A
:100890008083E0914701F0914801808188608083E6
:1008A000E0914701F0914801808180688083E09168
:1008B0004701F091480180818F7D808323E2222EC1
:1008C000312CCE0101967C0130E0C32E30E0D32ED6
:1008D000198618861B861A861D861C8643E050E002
:1008E00068E171E0CE0108960E944C0260E08091C0
:1008F000D2010E94990183E090E00197F1F761E055
:100900008091D2010E949901C1010197F1F760E045
:100910008091D2010E9499018091D30190E0FC0165
:10092000E255FF4F6491FC01E656FF4FE491F0E081
:10093000EE0FFF1FE458FF4F8591949100E412E4FD
:100940002FE030E0462F0E940F03611571058105ED
:10095000910529F06F5F7F4F8F4F9F4F9F702BE363
:1009600030E040E050E00E94D20549011D8A1C8A17
:100970001F8A1E8A198E188E4CE050E06CE171E0DF
:10098000CE0144960E944C021F861E86198A188A40
:100990001B8A1A8A6C897D896115710531F0488D31
:1009A000598DCE010E960E944C024AE0B701C40157
:1009B0000E947105F70101900020E9F73197EE19C7
:1009C000FF09B9F00A891B890E0F1F1FB801CE015C
:1009D0000E960E942402882309F479C02E853F8553
:1009E0008A899B89B701820F931F0E94E5071B8BA1
:1009F0000A8BA884B984A114B10409F46DC00C85D4
:100A00001D8501151105B9F08A899B89080F191FE9
:100A1000B801CE010E960E942402882309F45CC01E
:100A20002E853F858A899B89B501820F931F0E947D
:100A3000E5071B8B0A8B4A895B896E857F8585E379
:100A400091E00E948C0042E050E069E271E085E3B1
:100A500091E00E948C00CE010E960E941C02CE01F5
:100A600044960E941C02CE0108960E941C020E941D
:100A7000E5012B013C0184E6882E912CA12CB12CA0
:100A80000E94E5016419750986099709683E73405B
:100A900081059105A8F391E0891A9108A108B10890
:100AA00028EE420E23E0521E611C711C8114910439
:100AB000A104B10429F7C114D10409F409CF0E949B
:100AC000F600882309F404CF0E94000001CFCE0174
:100AD0000E960E940A028DCFCE010E960E940A0247
:100AE000AACFBB27FB015527AA27880F991FAA1F4A
:100AF000A41710F0A41B83955051B9F7A05DAA3339
:100B000008F0A95DA193009779F7B111B193119203
:100B1000CB010C948B05DC01FC01672F71917723CD
:100B2000E1F7329704C07C916D9370836291AE17A8
:100B3000BF07C8F308952F923F924F925F926F9232
:100B40007F928F929F92AF92BF92CF92DF92EF925D
:100B5000FF920F931F93CF93DF93CDB7DEB7CA1BDE
:100B6000DB0B0FB6F894DEBF0FBECDBF09942A8809
:100B7000398848885F846E847D848C849B84AA84B1
:100B8000B984C884DF80EE80FD800C811B81AA813E
:100B9000B981CE0FD11D0FB6F894DEBF0FBECDBF09
:100BA000ED010895A1E21A2EAA1BBB1BFD010DC089
:100BB000AA1FBB1FEE1FFF1FA217B307E407F5070D
:100BC00020F0A21BB30BE40BF50B661F771F881FE9
:100BD000991F1A9469F760957095809590959B017F
:100BE000AC01BD01CF010895EE0FFF1F0590F491F8
:100BF000E02D09940F931F93CF93DF9382309105DB
:100C000010F482E090E0E091D601F091D70130E05D
:100C100020E0B0E0A0E0309799F42115310509F407
:100C20004AC0281B390B24303105D8F58A819B81B5
:100C30006115710589F1FB0193838283FE0111C067
:100C4000408151810281138148175907E0F048170C
:100C5000590799F4109761F012960C931297139616
:100C60001C933296CF01DF91CF911F910F91089580
:100C70000093D6011093D701F4CF2115310551F01F
:100C80004217530738F0A901DB019A01BD01DF01CA
:100C9000F801C1CFEF01F9CF9093D7018093D6012E
:100CA000CDCFFE01E20FF31F8193919322503109C2
:100CB00039832883D7CF2091D4013091D501232BBC
:100CC00041F420910201309103013093D50120932A
:100CD000D40120910001309101012115310541F429
:100CE0002DB73EB74091040150910501241B350BEF
:100CF000E091D401F091D501E217F307A0F42E1B87
:100D00003F0B2817390778F0AC014E5F5F4F24176F
:100D1000350748F04E0F5F1F5093D5014093D40123
:100D2000819391939FCFF0E0E0E09CCFCF93DF934E
:100D30000097E9F0FC01329713821282A091D6014C
:100D4000B091D701ED0130E020E01097A1F42081AF
:100D50003181820F931F2091D4013091D501281742
:100D6000390709F061C0F093D501E093D401DF9118
:100D7000CF910895EA01CE17DF07E8F54A815B813C
:100D80009E0141155105B1F7E901FB83EA834991C1
:100D90005991C40FD51FEC17FD0761F48081918133
:100DA0000296840F951FE90199838883828193813C
:100DB0009B838A83F0E0E0E012968D919C911397DB
:100DC0000097B9F52D913C911197CD010296820FB4
:100DD000931F2091D4013091D5012817390739F696
:100DE000309751F51092D7011092D601B093D501EA
:100DF000A093D401BCCFD383C28340815181840F9F
:100E0000951FC817D90761F44E5F5F4F888199819C
:100E1000480F591F518340838A819B81938382832A
:100E20002115310509F0B0CFF093D701E093D60139
:100E30009ECFFD01DC01C0CF13821282D7CFB0E07C
:100E4000A0E0E5E2F7E00C949D058C01009751F4D9
:100E5000CB010E94FA058C01C801CDB7DEB7E0E1F5
:100E60000C94B905FC01E60FF71F9C0122503109D3
:100E7000E217F30708F49DC0D901CD91DC911197D9
:100E8000C617D70798F0C530D10530F3CE010497C7
:100E90008617970708F3C61BD70B2297C193D193E8
:100EA0006D937C93CF010E949606D6CF5B01AC1A5E
:100EB000BD0A4C018C0E9D1EA091D601B091D701A8
:100EC000512C412CF12CE12C109731F58091D4015B
:100ED0009091D5018815990509F05CC04616570612
:100EE00008F058C08091000190910101009741F4F1
:100EF0008DB79EB74091040150910501841B950B5D
:100F0000E817F90708F055C0F093D501E093D40134
:100F1000F90171836083A0CF8D919C9111971296F6
:100F20006C90129713967C901397A815B90559F5F4
:100F30006C0142E0C40ED11CCA14DB0420F1AC01E8
:100F40004A195B09DA011296159780F06282738262
:100F500051834083D9016D937C93E114F10471F0C6
:100F6000D7011396FC93EE93129776CF22968C0FAF
:100F70009D1FF90191838083F301EFCFF093D70197
:100F8000E093D60169CF4816590608F42C017D017B
:100F9000D3019ACFCB010E94FA057C01009749F05A
:100FA000AE01B8010E94DC07C8010E9496068701C5
:100FB00053CF10E000E050CFFB01DC0102C00190F4
:100FC0000D9241505040D8F70895FB01DC0101908B
:0C0FD0000D920020E1F70895F894FFCF87
:100FDC000000D8018000000000002C018C00B9003A
:100FEC007901EA00C800DC0020636D004469737469
:0C0FFC00C3A26E6369613A20000D0A0078
:00000001FF
