:100000000C9462000C948A000C948A000C948A0070
:100010000C948A000C948A000C948A000C948A0038
:100020000C948A000C948A000C948A000C948A0028
:100030000C948A000C948A000C948A000C948A0018
:100040000C94CD020C948A000C949B020C947502C3
:100050000C948A000C948A000C948A000C948A00F8
:100060000C948A000C948A00000000080002010031
:100070000003040700000000000000000000000072
:1000800023002600290000000000250028002B0086
:1000900000000000240027002A00040404040404D3
:1000A0000404020202020202030303030303010227
:1000B00004081020408001020408102001020408F6
:1000C00010205C0311241FBECFEFD8E0DEBFCDBFF0
:1000D00021E0A2E3B1E001C01D92AE3DB207E1F71D
:1000E00011E0A0E0B1E0E4EFFFE002C005900D9266
:1000F000A233B107D9F710E0C2E6D0E004C02197DF
:10010000FE010E940006C136D107C9F70E94E40330
:100110000C94F8070C940000AF92BF92CF92DF923C
:10012000EF92FF920F931F93CF93DF936C017B01AC
:100130008B01040F151FEB015E01AE18BF08C0173D
:10014000D10759F06991D601ED91FC910190F081B0
:10015000E02DC6010995892B79F7C501DF91CF9173
:100160001F910F91FF90EF90DF90CF90BF90AF90D5
:100170000895FC01538D448D252F30E0842F90E0AD
:10018000821B930B541710F0CF9608950197089592
:10019000FC01918D828D981761F0A28DAE0FBF2F5B
:1001A000B11D5D968C91928D9F5F9F73928F90E0B1
:1001B00008958FEF9FEF0895FC01918D828D981720
:1001C00031F0828DE80FF11D858D90E008958FEF5D
:1001D0009FEF0895FC01918D228D892F90E0805C26
:1001E0009F4F821B91098F73992708958BE391E0AC
:1001F0000E94EA0021E0892B09F420E0822F089573
:1002000080E090E0892B29F00E94F60081110C9487
:1002100000000895FC01A48DA80FB92FB11DA35AA9
:10022000BF4F2C91848D90E001968F739927848F16
:10023000A689B7892C93A089B1898C918370806439
:100240008C93938D848D981306C00288F389E02DDA
:1002500080818F7D80830895EF92FF920F931F938B
:10026000CF93DF93EC0181E0888F9B8D8C8D981369
:100270001AC0E889F989808185FF15C09FB7F89475
:10028000EE89FF896083E889F989808183708064C1
:1002900080839FBF81E090E0DF91CF911F910F910C
:1002A000FF90EF900895F62E0B8D10E00F5F1F4F1B
:1002B0000F731127E02E8C8D8E110CC00FB607FC2A
:1002C000FACFE889F989808185FFF5CFCE010E94B8
:1002D0000A01F1CFEB8DEC0FFD2FF11DE35AFF4F1B
:1002E000F0829FB7F8940B8FEA89FB898081806246
:1002F000CFCFCF93DF93EC01888D8823B9F0AA8903
:10030000BB89E889F9898C9185FD03C0808186FDD0
:100310000DC00FB607FCF7CF8C9185FFF2CF80811F
:1003200085FFEDCFCE010E940A01E9CFDF91CF9189
:10033000089590E0FC01E859FF4F2491FC01E2553B
:10034000FF4F3491FC01E656FF4FE491EE23C9F0D4
:10035000222339F0233001F1A8F4213019F12230A1
:1003600029F1F0E0EE0FFF1FEA57FF4FA591B4917E
:100370008FB7F894EC91611126C030953E233C93E1
:100380008FBF08952730A9F02830C9F0243049F7ED
:10039000809180008F7D03C0809180008F77809353
:1003A0008000DFCF84B58F7784BDDBCF84B58F7DB0
:1003B000FBCF8091B0008F778093B000D2CF809137
:1003C000B0008F7DF9CF3E2BDACF3FB7F894809104
:1003D000370190913801A0913901B0913A0126B5C9
:1003E000A89B05C02F3F19F00196A11DB11D3FBF6D
:1003F000BA2FA92F982F8827BC01CD01620F711D3C
:10040000811D911D42E0660F771F881F991F4A9535
:10041000D1F7089542E050E068E171E08BE391E0AC
:100420000C948C00CF93DF93EC0188819981009725
:1004300011F00E94A206198218821D821C821B8262
:100440001A82DF91CF910895FC01808191810097FC
:1004500011F00C94A20608950F931F93CF93DF938E
:10046000EC0188819981009759F02A813B812617F8
:10047000370730F081E0DF91CF911F910F91089500
:100480008B016F5F7F4F0E942B07009759F0998374
:1004900088831B830A832C813D81232B59F7FC0120
:1004A0001082E8CF80E0E7CFEF92FF920F931F9387
:1004B000CF93DF93EC017B018A01BA010E942C02E9
:1004C00081110BC0CE010E941202CE01DF91CF91AB
:1004D0001F910F91FF90EF9008951D830C83B7013A
:1004E000888199810E94F107F0CF1F920F920FB679
:1004F0000F9211242F933F934F935F936F937F93AA
:100500008F939F93AF93BF93EF93FF938BE391E010
:100510000E940A01FF91EF91BF91AF919F918F913E
:100520007F916F915F914F913F912F910F900FBEEF
:100530000F901F9018951F920F920FB60F921124D3
:100540002F938F939F93EF93FF93E0914B01F09143
:100550004C018081E0915101F091520182FD1BC05C
:100560009081809154018F5F8F7320915501821784
:1005700041F0E0915401F0E0E55CFE4F958F8093EF
:100580005401FF91EF919F918F912F910F900FBE8A
:100590000F901F9018958081F4CF1F920F920FB685
:1005A0000F9211242F933F938F939F93AF93BF93F9
:1005B0008091330190913401A0913501B0913601C1
:1005C0003091320123E0230F2D3758F50196A11DFC
:1005D000B11D209332018093330190933401A09395
:1005E0003501B09336018091370190913801A09187
:1005F0003901B0913A010196A11DB11D80933701D7
:1006000090933801A0933901B0933A01BF91AF9113
:100610009F918F913F912F910F900FBE0F901F9040
:10062000189526E8230F0296A11DB11DD2CFCF92B7
:10063000DF92EF92FF920F931F93E82FF92F05C0DF
:10064000015011092109310961F190819623941714
:10065000B9F305C0015011092109310911F1908147
:1006600096239413F7CFC12CD12CE12CF12C0AC086
:100670008FEFC81AD80AE80AF80A0C151D052E05CE
:100680003F0579F080818623841791F36C2D7D2DB1
:100690008E2D9F2D1F910F91FF90EF90DF90CF90A7
:1006A000089560E070E080E090E01F910F91FF906E
:1006B000EF90DF90CF900895CF93DF9310923E019B
:1006C00010923D0188EE93E0A0E0B0E080933F01FE
:1006D00090934001A0934101B09342018AE091E0E0
:1006E00090933C0180933B0185EC90E0909348010E
:1006F0008093470184EC90E090934A0180934901F4
:1007000080EC90E090934C0180934B0181EC90E061
:1007100090934E0180934D0182EC90E090935001B4
:1007200080934F0186EC90E09093520180935101A9
:1007300010925401109255011092560110925701D7
:10074000E2EBF0E02491EEE9F0E08491882399F067
:1007500090E0880F991FFC01E057FF4FA591B491DD
:10076000FC01EA57FF4F859194918FB7F894EC9173
:10077000E22BEC938FBFE3EBF0E02491EFE9F0E0A4
:1007800084918823C1F090E0880F991FFC01E05705
:10079000FF4FC591D491FC01EA57FF4FA591B49149
:1007A0009FB7F8948881E22FE0958E2388838C91FF
:1007B000E823EC939FBF84E08093D80185E0809389
:1007C000D901DF91CF910895CF93DF93CDB7DEB7F5
:1007D00069970FB6F894DEBF0FBECDBF789484B58D
:1007E000826084BD84B5816084BD85B5826085BD2D
:1007F00085B5816085BD80916E00816080936E00BB
:1008000010928100809181008260809381008091AC
:10081000810081608093810080918000816080935D
:1008200080008091B10084608093B1008091B0001D
:1008300081608093B00080917A00846080937A0018
:1008400080917A00826080937A0080917A00816042
:1008500080937A0080917A00806880937A00109269
:10086000C100E0914B01F0914C0182E08083E09166
:100870004701F09148011082E0914901F0914A014D
:100880008FEC808310925301E0914F01F091500161
:1008900086E08083E0914D01F0914E01808180617E
:1008A0008083E0914D01F0914E01808188608083CA
:1008B000E0914D01F0914E01808180688083E0914C
:1008C0004D01F0914E0180818F7D808345E050E0A5
:1008D0006BE171E08BE391E00E948C000E940A02C0
:1008E00023E2222E312CCE0101967C0130E0C32E72
:1008F00030E0D32E198618861B861A861D861C8624
:1009000043E050E061E271E0CE0108960E9454029B
:1009100060E08091D8010E94990183E090E0019706
:10092000F1F761E08091D8010E949901C10101971E
:10093000F1F760E08091D8010E9499018091D9017E
:1009400090E0FC01E255FF4F6491FC01E656FF4F39
:10095000E491F0E0EE0FFF1FE458FF4F8591949172
:1009600000E412E42FE030E0462F0E9417036115E7
:1009700071058105910529F06F5F7F4F8F4F9F4F64
:100980009F702BE330E040E050E00E94DE0549011B
:100990001D8A1C8A1F8A1E8A198E188E4CE050E010
:1009A00065E271E0CE0144960E9454021F861E86C5
:1009B000198A188A1B8A1A8A6C897D8961157105C2
:1009C00031F0488D598DCE010E960E9454024AE0B6
:1009D000B701C4010E947D05F70101900020E9F7ED
:1009E0003197EE19FF09B9F00A891B890E0F1F1FF5
:1009F000B801CE010E960E942C02882309F473C020
:100A00002E853F858A899B89B701820F931F0E949B
:100A1000F1071B8B0A8BA884B984A114B10409F4D3
:100A200067C00C851D8501151105B9F08A899B8960
:100A3000080F191FB801CE010E960E942C028823C0
:100A400009F456C02E853F858A899B89B501820F9E
:100A5000931F0E94F1071B8B0A8B4A895B896E8565
:100A60007F858BE391E00E948C000E940A02CE01F8
:100A70000E960E942402CE0144960E942402CE01CA
:100A800008960E9424020E94E5012B013C0184E6A5
:100A9000882E912CA12CB12C0E94E50164197509B6
:100AA00086099709683E734081059105A8F391E096
:100AB000891A9108A108B10828EE420E23E0521EBF
:100AC000611C711C81149104A104B10429F7C114A3
:100AD000D10409F40FCF0E94F600882309F40ACF4D
:100AE0000E94000007CFCE010E960E94120293CF03
:100AF000CE010E960E941202B0CFBB27FB015527F4
:100B0000AA27880F991FAA1FA41710F0A41B83956A
:100B10005051B9F7A05DAA3308F0A95DA1930097E1
:100B200079F7B111B1931192CB010C949705DC01C7
:100B3000FC01672F71917723E1F7329704C07C9114
:100B40006D9370836291AE17BF07C8F308952F921B
:100B50003F924F925F926F927F928F929F92AF924D
:100B6000BF92CF92DF92EF92FF920F931F93CF939A
:100B7000DF93CDB7DEB7CA1BDB0B0FB6F894DEBF31
:100B80000FBECDBF09942A88398848885F846E8457
:100B90007D848C849B84AA84B984C884DF80EE80A1
:100BA000FD800C811B81AA81B981CE0FD11D0FB6AA
:100BB000F894DEBF0FBECDBFED010895A1E21A2E5D
:100BC000AA1BBB1BFD010DC0AA1FBB1FEE1FFF1FF1
:100BD000A217B307E407F50720F0A21BB30BE40B41
:100BE000F50B661F771F881F991F1A9469F7609588
:100BF0007095809590959B01AC01BD01CF01089542
:100C0000EE0FFF1F0590F491E02D09940F931F93B1
:100C1000CF93DF938230910510F482E090E0E09171
:100C2000DC01F091DD0130E020E0B0E0A0E03097A1
:100C300099F42115310509F44AC0281B390B2430D9
:100C40003105D8F58A819B816115710589F1FB0118
:100C500093838283FE0111C04081518102811381FF
:100C600048175907E0F04817590799F4109761F0B1
:100C700012960C93129713961C933296CF01DF9124
:100C8000CF911F910F9108950093DC011093DD0126
:100C9000F4CF2115310551F04217530738F0A9015F
:100CA000DB019A01BD01DF01F801C1CFEF01F9CFEE
:100CB0009093DD018093DC01CDCFFE01E20FF31FA5
:100CC000819391932250310939832883D7CF209182
:100CD000DA013091DB01232B41F4209102013091A4
:100CE00003013093DB012093DA0120910001309160
:100CF00001012115310541F42DB73EB740910401A2
:100D000050910501241B350BE091DA01F091DB01D4
:100D1000E217F307A0F42E1B3F0B2817390778F0D2
:100D2000AC014E5F5F4F2417350748F04E0F5F1F31
:100D30005093DB014093DA01819391939FCFF0E0D0
:100D4000E0E09CCFCF93DF930097E9F0FC0132976E
:100D500013821282A091DC01B091DD01ED0130E03F
:100D600020E01097A1F420813181820F931F209100
:100D7000DA013091DB012817390709F061C0F093DF
:100D8000DB01E093DA01DF91CF910895EA01CE17FC
:100D9000DF07E8F54A815B819E0141155105B1F7F6
:100DA000E901FB83EA8349915991C40FD51FEC17E0
:100DB000FD0761F4808191810296840F951FE901FE
:100DC00099838883828193819B838A83F0E0E0E02A
:100DD00012968D919C9113970097B9F52D913C91A6
:100DE0001197CD010296820F931F2091DA01309165
:100DF000DB012817390739F6309751F51092DD01DC
:100E00001092DC01B093DB01A093DA01BCCFD38355
:100E1000C28340815181840F951FC817D90761F49F
:100E20004E5F5F4F88819981480F591F51834083DE
:100E30008A819B81938382832115310509F0B0CF8C
:100E4000F093DD01E093DC019ECFFD01DC01C0CF1A
:100E500013821282D7CFB0E0A0E0E1E3F7E00C9478
:100E6000A9058C01009751F4CB010E9406068C0164
:100E7000C801CDB7DEB7E0E10C94C505FC01E60F73
:100E8000F71F9C0122503109E217F30708F49DC0B7
:100E9000D901CD91DC911197C617D70798F0C530CD
:100EA000D10530F3CE0104978617970708F3C61BC8
:100EB000D70B2297C193D1936D937C93CF010E945E
:100EC000A206D6CF5B01AC1ABD0A4C018C0E9D1E4A
:100ED000A091DC01B091DD01512C412CF12CE12CD1
:100EE000109731F58091DA019091DB018815990511
:100EF00009F05CC04616570608F058C08091000102
:100F000090910101009741F48DB79EB74091040183
:100F100050910501841B950BE817F90708F055C09F
:100F2000F093DB01E093DA01F90171836083A0CFD4
:100F30008D919C91119712966C90129713967C90BC
:100F40001397A815B90559F56C0142E0C40ED11CE0
:100F5000CA14DB0420F1AC014A195B09DA011296CC
:100F6000159780F06282738251834083D9016D931B
:100F70007C93E114F10471F0D7011396FC93EE9386
:100F8000129776CF22968C0F9D1FF9019183808353
:100F9000F301EFCFF093DD01E093DC0169CF481658
:100FA000590608F42C017D01D3019ACFCB010E9490
:100FB00006067C01009749F0AE01B8010E94E807DF
:100FC000C8010E94A206870153CF10E000E050CF75
:100FD000FB01DC0102C001900D9241505040D8F756
:100FE0000895FB01DC0101900D920020E1F70895C6
:040FF000F894FFCFA3
:100FF4000000DE018000000000002C018C00B9001C
:101004007901EA00C800DC000D0A00626F737461A4
:101014000020636D0044697374C3A26E6369613A0E
:021024002000AA
:00000001FF
